:0A08F50000010202030304040505DC
:10068D00E4F52CF52BF52AF529C203C200C202C2EE
:10069D0001120E757E0A7F008E0A8F0B75120A7578
:1006AD00131275080A75091C75100A75114A75140F
:1006BD000A751578EE54C07003020792752D0075FA
:1006CD002E808E2F8F30C3749A9FFF740A9ECF2475
:1006DD0002CF3400FEE48F288E27F526F525F5246C
:1006ED00F523F522F521AF28AE27AD26AC25AB2499
:1006FD00AA23A922A821C3120AEB5037E5302524DD
:10070D00F582E52F3523F583E0FFE52E2524F582CF
:10071D00E52D3523F583EFF0E4FAF9F8E52424010E
:10072D00F524EA3523F523E93522F522E83521F5BF
:10073D002180B3852D0A852E0B74002480FF740A49
:10074D0034FFFEC3E5139FF513E5129EF512C3E5C5
:10075D000D9FF50DE50C9EF50CC3E50F9FF50FE50F
:10076D000E9EF50EC3E5099FF509E5089EF508C334
:10077D00E5119FF511E5109EF510C3E5159FF515D3
:10078D00E5149EF514D2E843D82090E668E04409BC
:10079D00F090E65CE0443DF0D2AF90E680E054F797
:1007AD00F0538EF8C2031208FF3001051203DAC2AE
:1007BD00013003F21209FE50EDC203120D58200054
:1007CD001690E682E030E704E020E1EF90E682E06B
:0F07DD0030E604E020E0E4120D01120E7F80C729
:0107EC0022EA
:100E180090E60AE054F0600B90E509E030E402D374
:050E280022C322D322C9
:1003DA0090E6B9E070030204C514700302056E24A6
:1003EA00FE700302060424FB70030204BF147003A8
:1003FA000204B91470030204AD1470030204B32496
:10040A00056003020679120E81400302068590E612
:10041A00BBE024FE603B14605624FD601614604065
:10042A0024067075E50A90E6B3F0E50B90E6B4F0A1
:10043A00020685120E18500FE51290E6B3F0E51386
:10044A0090E6B4F002068590E6A0E04401F00206C8
:10045A0085E50C90E6B3F0E50D90E6B4F00206856A
:10046A00E50E90E6B3F0E50F90E6B4F0020685904B
:10047A00E6BAE0FF120D2DAA06A9077B01EA494B4D
:10048A00600DEE90E6B3F0EF90E6B4F002068590C8
:10049A00E6A0E04401F002068590E6A0E04401F0FF
:1004AA00020685120E3F020685120E6502068512A5
:1004BA000E5D020685120E2D020685120E8340037A
:1004CA0002068590E6B8E0247F602B14603C240283
:1004DA006003020564A200E433FF25E0FFA202E400
:1004EA00334F90E740F0E4A3F090E68AF090E68B71
:1004FA007402F0020685E490E740F0A3F090E68AE1
:10050A00F090E68B7402F002068590E6BCE0547E19
:10051A00FF7E00E0D3948040067C007D0180047C4D
:10052A00007D00EC4EFEED4F24F5F58274083EF591
:10053A0083E493FF3395E0FEEF24A1FFEE34E68FC8
:10054A0082F583E0540190E740F0E4A3F090E68A54
:10055A00F090E68B7402F002068590E6A0E0440172
:10056A00F0020685120E85400302068590E6B8E081
:10057A0024FE601D2402600302068590E6BAE0B4F8
:10058A000105C20002068590E6A0E04401F00206D9
:10059A008590E6BAE0705990E6BCE0547EFF7E0092
:1005AA00E0D3948040067C007D0180047C007D00BD
:1005BA00EC4EFEED4F24F5F58274083EF583E49384
:1005CA00FF3395E0FEEF24A1FFEE34E68F82F58338
:1005DA00E054FEF090E6BCE05480FF131313541F5E
:1005EA00FFE0540F2F90E683F0E04420F0020685E6
:1005FA0090E6A0E04401F0020685120E87507C9036
:10060A00E6B8E024FE60202402705B90E6BAE0B40B
:10061A000104D200806590E6BAE06402605D90E66B
:10062A00A0E04401F0805490E6BCE0547EFF7E00D6
:10063A00E0D3948040067C007D0180047C007D002C
:10064A00EC4EFEED4F24F5F58274083EF583E493F3
:10065A00FF3395E0FEEF24A1FFEE34E68F82F583A7
:10066A00E04401F0801590E6A0E04401F0800C120D
:10067A000080500790E6A0E04401F090E6A0E04434
:02068A0080F0FE
:01068C00224B
:03003300020E7B3F
:040E7B0053D8EF3227
:060E7500D200120E6D22F6
:0108FF0022D6
:0209FE00D32202
:020E7F00D3227C
:020E8100D3227A
:080E5D0090E6BAE0F51ED32275
:100E2D0090E740E51EF0E490E68AF090E68B04F042
:020E3D00D322BE
:080E650090E6BAE0F51CD3226F
:100E3F0090E740E51CF0E490E68AF090E68B04F032
:020E4F00D322AC
:020E8300D32278
:020E8500D32276
:020E8700D32274
:1000800090E678E05410FFC4540F4450F51D13E47B
:1000900033F51F90E6B9E0245EB40A004003020382
:1000A000D89000AF75F003A4C58325F0C583730213
:1000B000024D02024D0203D80203D80200CD020312
:1000C000D80201130201390200ED02010090E6009E
:1000D000E0FFC4540F90E740F0E490E68AF090E629
:1000E0008B04F090E6A0E04480F00203D890E67A1A
:1000F000E054FEF0E490E68AF090E68BF00203D83C
:1001000090E67AE04401F0E490E68AF090E68BF025
:100110000203D890E7407407F0E490E68AF090E696
:100120008B04F090E6A0E04480F07FE87E031209A3
:10013000B8D204120CD20203D8751F01431D0190DE
:10014000E6BAE0753100F532A3E0FEE4EE4231900C
:10015000E6BEE0753300F534A3E0FEE4EE423390F2
:10016000E6B8E064C060030201F3E5344533700390
:100170000203D890E6A0E020E1F9C3E5349440E51D
:100180003394005008853335853436800675350044
:10019000753640E4F537F538C3E5389536E53795DB
:1001A00035501874402538F582E434E7F58374CD72
:1001B000F00538E5387002053780DDAD367AE7792D
:1001C000407EE77F40AB07AF32AE31120AFCE490CD
:1001D000E68AF090E68BE536F02532F532E53535E6
:1001E00031F531C3E5349536F534E5339535F533DE
:1001F00002016A90E6B8E0644060030203D8E53487
:10020000453370030203D8E490E68AF090E68BF061
:1002100090E6A0E020E1F990E68BE0753500F53638
:10022000FD7AE779407EE77F40AB07AF32AE31120F
:100230000C37E5362532F532E5353531F531C3E594
:10024000349536F534E5339535F53380B1E4F51F53
:1002500090E6BAE0753100F532A3E0FEE4EE4231FB
:1002600090E6BEE0753300F534A3E0FEE4EE4233E1
:1002700090E6B8E064C06003020340E534453370A3
:10028000030203D890E6A0E020E1F9C3E5349440EE
:10029000E53394005008853335853436800675354E
:1002A0000075364090E6B9E0B4A335E4F537F5388B
:1002B000C3E5389536E53795355060E5322538F594
:1002C00082E5313537F583E0FF74402538F582E467
:1002D00034E7F583EFF00538E5387002053780D054
:1002E000E4F537F538C3E5389536E53795355018D8
:1002F00074402538F582E434E7F58374CDF0053891
:10030000E5387002053780DDAD367AE779407EE763
:100310007F40AB07AF32AE31120AFCE490E68AF0C0
:1003200090E68BE536F02532F532E5353531F5319D
:10033000C3E5349536F534E5339535F53302027B64
:1003400090E6B8E0644060030203D8E534453370BA
:10035000030203D8E490E68AF090E68BF090E6A0E2
:10036000E020E1F990E68BE0753500F53690E6B9CE
:10037000E0B4A335E4F537F538C3E5389536E5370D
:100380009535503874402538F582E434E7F583E03C
:10039000FFE5322538F582E5313537F583EFF00595
:1003A00038E5387002053780D0AD367AE779407E7F
:1003B000E77F40AB07AF32AE31120C37E53625325E
:1003C000F532E5353531F531C3E5349536F534E5AB
:0903D000339535F53302034BC3EC
:0103D9002201
:100D7D00C0E0C083C08290E6B5E04401F0D20153DB
:0F0D8D0091EF90E65D7401F0D082D083D0E03218
:100DEC00C0E0C083C0825391EF90E65D7404F0D0F4
:060DFC0082D083D0E0323A
:100E0200C0E0C083C0825391EF90E65D7402F0D0DF
:060E120082D083D0E03223
:100BC900C0E0C083C08290E680E030E70E85080C63
:100BD90085090D85100E85110F800C85100C851166
:100BE9000D85080E85090F5391EF90E65D7410F09D
:070BF900D082D083D0E0326E
:100DD400C0E0C083C082D2035391EF90E65D7408F3
:080DE400F0D082D083D0E03290
:100C0000C0E0C083C08290E680E030E70E85080C2B
:100C100085090D85100E85110F800C85100C85112E
:100C20000D85080E85090F5391EF90E65D7420F055
:070C3000D082D083D0E03236
:010E89003236
:010E8A003235
:010E8B003234
:010E8C003233
:010E8D003232
:010E8E003231
:010E8F003230
:010E9000322F
:010E9100322E
:010E9200322D
:010E9300322C
:010E9400322B
:010E9500322A
:010E96003229
:010E97003228
:010E98003227
:010E99003226
:010E9A003225
:010E9B003224
:010E9C003223
:010E9D003222
:010E9E003221
:010E9F003220
:010EA000321F
:010EA100321E
:010EA200321D
:010EA300321C
:010EA400321B
:010EA500321A
:010EA6003219
:010EA7003218
:010EA8003217
:010EA9003216
:010EAA003215
:010EAB003214
:010EAC003213
:060B4700AB07AA06AC0595
:100B4D00E4FDE51F6010EA7E000DEE2400F582E461
:100B5D003410F583EAF0EBAE050D74002EF582E44A
:100B6D003410F583EBF0AF050D74002FF582E434EE
:100B7D0010F583ECF07A107B00AF1D120DB8AF1D90
:030B8D00120B91B7
:010B90002242
:0A0C37008E398F3A8D3B8A3C8B3DCD
:100C4100E4F53EE53EC3953B5020053AE53AAE3921
:100C51007002053914FFE53D253EF582E4353CF58A
:0A0C610083E0FD120B47053E80D929
:010C6B002266
:0A0AFC008E398F3A8D3B8A3C8B3D0A
:100B0600E4FDF53EE51F6012E539FF7E000DEE249B
:100B160000F582E43410F583EFF0E53AAE050D7486
:100B2600002EF582E43410F583E53AF07A107B0066
:100B3600AF1D120DB8AB3DAA3CAD3BAF1D120D9CCF
:010B4600228C
:100A00001201000200000040B404041000000102C2
:100A100000010A06000200000040010009022E0049
:100A200001010080320904000004FF0000000705F6
:100A30000202000200070504020002000705860208
:100A40000002000705880200020009022E000101D1
:100A50000080320904000004FF00000007050202C4
:100A60004000000705040240000007058602400020
:100A70000007058802400000040309041003430036
:100A80007900700072006500730073000E0345006A
:0C0A90005A002D005500530042000000E9
:03004300020900AF
:030053000209009F
:10090000020D7D00020E0200020DEC00020DD4006B
:10091000020BC900020C0000020E8900020E8A00C0
:10092000020E8B00020E8C00020E8D00020E8E0055
:10093000020E8F00020E9000020E9100020E920035
:10094000020E9300020E8A00020E9400020E950021
:10095000020E9600020E9700020E9800020E9900F9
:10096000020E9A00020E8A00020E8A00020E8A000F
:10097000020E9B00020E9C00020E9D00020E9E00C5
:10098000020E9F00020EA000020EA100020EA200A5
:10099000020EA300020EA400020EA500020EA60085
:1009A000020EA700020EA800020EA900020EAA0065
:0809B000020EAB00020EAC00C8
:100D010090E682E030E004E020E60B90E682E030FD
:100D1100E119E030E71590E680E04401F07F147EB0
:0C0D2100001209B890E680E054FEF022B9
:100CD20030040990E680E0440AF0800790E680E064
:100CE2004408F07FDC7E051209B890E65D74FFF0DF
:0F0CF20090E65FF05391EF90E680E054F7F02228
:1009B8008E398F3A90E600E054187012E53A240117
:1009C800FFE43539C313F539EF13F53A801590E68E
:1009D80000E05418FFBF100BE53A25E0F53AE53979
:1009E80033F539E53A153AAE39700215394E6005D6
:0609F800120D6C80EE22DE
:080E6D00E4F51BD2E9D2AF222B
:100B9100AD0790E678E020E6F9C2E990E678E04416
:100BA10080F0ED25E090E679F090E678E030E0F92C
:100BB10090E678E04440F090E678E020E6F990E6AF
:080BC10078E030E1D6D2E92210
:100CA000AC0790E678E020E6F9E51B702390E67843
:100CB000E04480F0EC25E090E679F08D16AF03A9D2
:100CC000077517018A188919E4F51A751B01D322D3
:020CD000C3223D
:100C6C00AC0790E678E020E6F9E51B702590E67875
:100C7C00E04480F0EC25E0440190E679F08D16AF6D
:100C8C0003A9077517018A188919E4F51A751B034E
:040C9C00D322C3227A
:03004B000207EDBC
:1007ED00C0E0C083C082C085C084C086758600C04D
:1007FD00D075D000C000C001C002C003C006C00744
:10080D0090E678E030E206751B060208D790E67890
:10081D00E020E10CE51B64026006751B070208D79A
:10082D00E51B24FE605F14603624FE70030208C8C9
:10083D0024FC70030208D4240860030208D7AB1708
:10084D00AA18A919AF1A051A8F82758300120A9C6E
:10085D0090E679F0E51A65167070751B05806B9042
:10086D00E679E0AB17AA18A919AE1A8E8275830026
:10087D00120AC9751B02E5166401704E90E678E008
:10088D004420F08045E51624FEB51A0790E678E081
:10089D004420F0E51614B51A0A90E678E04440F0CD
:1008AD00751B0090E679E0AB17AA18A919AE1A8E40
:1008BD0082758300120AC9051A800F90E678E0440C
:1008CD0040F0751B008003751B005391DFD007D0DE
:1008DD0006D003D002D001D000D0D0D086D084D0A5
:0808ED0085D082D083D0E032F7
:020D2D00A90714
:100D2F00AE14AF158F828E83A3E064037017AD01ED
:100D3F0019ED7001228F828E83E07C002FFDEC3E37
:080D4F00FEAF0580DFE4FEFFAA
:010D57002279
:100D9C00120C6CE51B24FA600E146006240770F329
:0C0DAC00D322E4F51BD322E4F51BD32274
:100DB800120CA0E51B24FA600E146006240770F3D9
:0C0DC800D322E4F51BD322E4F51BD32258
:100D580090E682E044C0F090E681F043870100000D
:040D68000000002265
:100D6C007400F58690FDA57C05A3E582458370F99A
:010D7C002254
:03000000020E519C
:0C0E5100787FE4F6D8FD75813E02068D26
:100A9C00BB010CE58229F582E5833AF583E022500F
:100AAC0006E92582F8E622BBFE06E92582F8E22259
:0D0ABC00E58229F582E5833AF583E4932273
:100AC900F8BB010DE58229F582E5833AF583E8F063
:100AD900225006E92582C8F622BBFE05E92582C80F
:020AE900F222F7
:100AEB00EB9FF5F0EA9E42F0E99D42F0E89C45F061
:010AFB0022D8
:00000001FF
